{
  "_format": "hh-sol-artifact-1",
  "contractName": "NetXToken",
  "sourceName": "contracts/NetXToken.sol",
  "abi": [
    {
      "inputs": [
        {
          "internalType": "address",
          "name": "initialOwner",
          "type": "address"
        }
      ],
      "stateMutability": "nonpayable",
      "type": "constructor"
    },
    {
      "inputs": [],
      "name": "ECDSAInvalidSignature",
      "type": "error"
    },
    {
      "inputs": [
        {
          "internalType": "uint256",
          "name": "length",
          "type": "uint256"
        }
      ],
      "name": "ECDSAInvalidSignatureLength",
      "type": "error"
    },
    {
      "inputs": [
        {
          "internalType": "bytes32",
          "name": "s",
          "type": "bytes32"
        }
      ],
      "name": "ECDSAInvalidSignatureS",
      "type": "error"
    },
    {
      "inputs": [
        {
          "internalType": "address",
          "name": "spender",
          "type": "address"
        },
        {
          "internalType": "uint256",
          "name": "allowance",
          "type": "uint256"
        },
        {
          "internalType": "uint256",
          "name": "needed",
          "type": "uint256"
        }
      ],
      "name": "ERC20InsufficientAllowance",
      "type": "error"
    },
    {
      "inputs": [
        {
          "internalType": "address",
          "name": "sender",
          "type": "address"
        },
        {
          "internalType": "uint256",
          "name": "balance",
          "type": "uint256"
        },
        {
          "internalType": "uint256",
          "name": "needed",
          "type": "uint256"
        }
      ],
      "name": "ERC20InsufficientBalance",
      "type": "error"
    },
    {
      "inputs": [
        {
          "internalType": "address",
          "name": "approver",
          "type": "address"
        }
      ],
      "name": "ERC20InvalidApprover",
      "type": "error"
    },
    {
      "inputs": [
        {
          "internalType": "address",
          "name": "receiver",
          "type": "address"
        }
      ],
      "name": "ERC20InvalidReceiver",
      "type": "error"
    },
    {
      "inputs": [
        {
          "internalType": "address",
          "name": "sender",
          "type": "address"
        }
      ],
      "name": "ERC20InvalidSender",
      "type": "error"
    },
    {
      "inputs": [
        {
          "internalType": "address",
          "name": "spender",
          "type": "address"
        }
      ],
      "name": "ERC20InvalidSpender",
      "type": "error"
    },
    {
      "inputs": [
        {
          "internalType": "uint256",
          "name": "deadline",
          "type": "uint256"
        }
      ],
      "name": "ERC2612ExpiredSignature",
      "type": "error"
    },
    {
      "inputs": [
        {
          "internalType": "address",
          "name": "signer",
          "type": "address"
        },
        {
          "internalType": "address",
          "name": "owner",
          "type": "address"
        }
      ],
      "name": "ERC2612InvalidSigner",
      "type": "error"
    },
    {
      "inputs": [
        {
          "internalType": "address",
          "name": "account",
          "type": "address"
        },
        {
          "internalType": "uint256",
          "name": "currentNonce",
          "type": "uint256"
        }
      ],
      "name": "InvalidAccountNonce",
      "type": "error"
    },
    {
      "inputs": [],
      "name": "InvalidShortString",
      "type": "error"
    },
    {
      "inputs": [
        {
          "internalType": "address",
          "name": "owner",
          "type": "address"
        }
      ],
      "name": "OwnableInvalidOwner",
      "type": "error"
    },
    {
      "inputs": [
        {
          "internalType": "address",
          "name": "account",
          "type": "address"
        }
      ],
      "name": "OwnableUnauthorizedAccount",
      "type": "error"
    },
    {
      "inputs": [
        {
          "internalType": "string",
          "name": "str",
          "type": "string"
        }
      ],
      "name": "StringTooLong",
      "type": "error"
    },
    {
      "anonymous": false,
      "inputs": [
        {
          "indexed": true,
          "internalType": "address",
          "name": "owner",
          "type": "address"
        },
        {
          "indexed": true,
          "internalType": "address",
          "name": "spender",
          "type": "address"
        },
        {
          "indexed": false,
          "internalType": "uint256",
          "name": "value",
          "type": "uint256"
        }
      ],
      "name": "Approval",
      "type": "event"
    },
    {
      "anonymous": false,
      "inputs": [
        {
          "indexed": true,
          "internalType": "address",
          "name": "from",
          "type": "address"
        },
        {
          "indexed": false,
          "internalType": "uint256",
          "name": "amount",
          "type": "uint256"
        }
      ],
      "name": "Burn",
      "type": "event"
    },
    {
      "anonymous": false,
      "inputs": [],
      "name": "EIP712DomainChanged",
      "type": "event"
    },
    {
      "anonymous": false,
      "inputs": [
        {
          "indexed": true,
          "internalType": "address",
          "name": "to",
          "type": "address"
        },
        {
          "indexed": false,
          "internalType": "uint256",
          "name": "amount",
          "type": "uint256"
        }
      ],
      "name": "Mint",
      "type": "event"
    },
    {
      "anonymous": false,
      "inputs": [
        {
          "indexed": true,
          "internalType": "address",
          "name": "previousOwner",
          "type": "address"
        },
        {
          "indexed": true,
          "internalType": "address",
          "name": "newOwner",
          "type": "address"
        }
      ],
      "name": "OwnershipTransferred",
      "type": "event"
    },
    {
      "anonymous": false,
      "inputs": [
        {
          "indexed": true,
          "internalType": "address",
          "name": "owner",
          "type": "address"
        },
        {
          "indexed": false,
          "internalType": "uint256",
          "name": "nonce",
          "type": "uint256"
        }
      ],
      "name": "PermitCancelled",
      "type": "event"
    },
    {
      "anonymous": false,
      "inputs": [
        {
          "indexed": true,
          "internalType": "address",
          "name": "from",
          "type": "address"
        },
        {
          "indexed": true,
          "internalType": "address",
          "name": "to",
          "type": "address"
        },
        {
          "indexed": false,
          "internalType": "uint256",
          "name": "value",
          "type": "uint256"
        }
      ],
      "name": "Transfer",
      "type": "event"
    },
    {
      "inputs": [],
      "name": "DOMAIN_SEPARATOR",
      "outputs": [
        {
          "internalType": "bytes32",
          "name": "",
          "type": "bytes32"
        }
      ],
      "stateMutability": "view",
      "type": "function"
    },
    {
      "inputs": [],
      "name": "INITIAL_MINT",
      "outputs": [
        {
          "internalType": "uint256",
          "name": "",
          "type": "uint256"
        }
      ],
      "stateMutability": "view",
      "type": "function"
    },
    {
      "inputs": [],
      "name": "TOTAL_SUPPLY",
      "outputs": [
        {
          "internalType": "uint256",
          "name": "",
          "type": "uint256"
        }
      ],
      "stateMutability": "view",
      "type": "function"
    },
    {
      "inputs": [
        {
          "internalType": "address",
          "name": "owner",
          "type": "address"
        },
        {
          "internalType": "address",
          "name": "spender",
          "type": "address"
        }
      ],
      "name": "allowance",
      "outputs": [
        {
          "internalType": "uint256",
          "name": "",
          "type": "uint256"
        }
      ],
      "stateMutability": "view",
      "type": "function"
    },
    {
      "inputs": [
        {
          "internalType": "address",
          "name": "spender",
          "type": "address"
        },
        {
          "internalType": "uint256",
          "name": "value",
          "type": "uint256"
        }
      ],
      "name": "approve",
      "outputs": [
        {
          "internalType": "bool",
          "name": "",
          "type": "bool"
        }
      ],
      "stateMutability": "nonpayable",
      "type": "function"
    },
    {
      "inputs": [
        {
          "internalType": "address",
          "name": "account",
          "type": "address"
        }
      ],
      "name": "balanceOf",
      "outputs": [
        {
          "internalType": "uint256",
          "name": "",
          "type": "uint256"
        }
      ],
      "stateMutability": "view",
      "type": "function"
    },
    {
      "inputs": [
        {
          "internalType": "uint256",
          "name": "amount",
          "type": "uint256"
        }
      ],
      "name": "burn",
      "outputs": [],
      "stateMutability": "nonpayable",
      "type": "function"
    },
    {
      "inputs": [],
      "name": "cancelPermit",
      "outputs": [],
      "stateMutability": "nonpayable",
      "type": "function"
    },
    {
      "inputs": [],
      "name": "decimals",
      "outputs": [
        {
          "internalType": "uint8",
          "name": "",
          "type": "uint8"
        }
      ],
      "stateMutability": "view",
      "type": "function"
    },
    {
      "inputs": [],
      "name": "eip712Domain",
      "outputs": [
        {
          "internalType": "bytes1",
          "name": "fields",
          "type": "bytes1"
        },
        {
          "internalType": "string",
          "name": "name",
          "type": "string"
        },
        {
          "internalType": "string",
          "name": "version",
          "type": "string"
        },
        {
          "internalType": "uint256",
          "name": "chainId",
          "type": "uint256"
        },
        {
          "internalType": "address",
          "name": "verifyingContract",
          "type": "address"
        },
        {
          "internalType": "bytes32",
          "name": "salt",
          "type": "bytes32"
        },
        {
          "internalType": "uint256[]",
          "name": "extensions",
          "type": "uint256[]"
        }
      ],
      "stateMutability": "view",
      "type": "function"
    },
    {
      "inputs": [
        {
          "internalType": "address",
          "name": "to",
          "type": "address"
        },
        {
          "internalType": "uint256",
          "name": "amount",
          "type": "uint256"
        }
      ],
      "name": "mint",
      "outputs": [],
      "stateMutability": "nonpayable",
      "type": "function"
    },
    {
      "inputs": [],
      "name": "name",
      "outputs": [
        {
          "internalType": "string",
          "name": "",
          "type": "string"
        }
      ],
      "stateMutability": "view",
      "type": "function"
    },
    {
      "inputs": [
        {
          "internalType": "address",
          "name": "owner",
          "type": "address"
        }
      ],
      "name": "nonces",
      "outputs": [
        {
          "internalType": "uint256",
          "name": "",
          "type": "uint256"
        }
      ],
      "stateMutability": "view",
      "type": "function"
    },
    {
      "inputs": [],
      "name": "owner",
      "outputs": [
        {
          "internalType": "address",
          "name": "",
          "type": "address"
        }
      ],
      "stateMutability": "view",
      "type": "function"
    },
    {
      "inputs": [
        {
          "internalType": "address",
          "name": "owner",
          "type": "address"
        },
        {
          "internalType": "address",
          "name": "spender",
          "type": "address"
        },
        {
          "internalType": "uint256",
          "name": "value",
          "type": "uint256"
        },
        {
          "internalType": "uint256",
          "name": "deadline",
          "type": "uint256"
        },
        {
          "internalType": "uint8",
          "name": "v",
          "type": "uint8"
        },
        {
          "internalType": "bytes32",
          "name": "r",
          "type": "bytes32"
        },
        {
          "internalType": "bytes32",
          "name": "s",
          "type": "bytes32"
        }
      ],
      "name": "permit",
      "outputs": [],
      "stateMutability": "nonpayable",
      "type": "function"
    },
    {
      "inputs": [],
      "name": "renounceOwnership",
      "outputs": [],
      "stateMutability": "nonpayable",
      "type": "function"
    },
    {
      "inputs": [],
      "name": "symbol",
      "outputs": [
        {
          "internalType": "string",
          "name": "",
          "type": "string"
        }
      ],
      "stateMutability": "view",
      "type": "function"
    },
    {
      "inputs": [],
      "name": "totalMinted",
      "outputs": [
        {
          "internalType": "uint256",
          "name": "",
          "type": "uint256"
        }
      ],
      "stateMutability": "view",
      "type": "function"
    },
    {
      "inputs": [],
      "name": "totalSupply",
      "outputs": [
        {
          "internalType": "uint256",
          "name": "",
          "type": "uint256"
        }
      ],
      "stateMutability": "view",
      "type": "function"
    },
    {
      "inputs": [
        {
          "internalType": "address",
          "name": "to",
          "type": "address"
        },
        {
          "internalType": "uint256",
          "name": "value",
          "type": "uint256"
        }
      ],
      "name": "transfer",
      "outputs": [
        {
          "internalType": "bool",
          "name": "",
          "type": "bool"
        }
      ],
      "stateMutability": "nonpayable",
      "type": "function"
    },
    {
      "inputs": [
        {
          "internalType": "address",
          "name": "from",
          "type": "address"
        },
        {
          "internalType": "address",
          "name": "to",
          "type": "address"
        },
        {
          "internalType": "uint256",
          "name": "value",
          "type": "uint256"
        }
      ],
      "name": "transferFrom",
      "outputs": [
        {
          "internalType": "bool",
          "name": "",
          "type": "bool"
        }
      ],
      "stateMutability": "nonpayable",
      "type": "function"
    },
    {
      "inputs": [
        {
          "internalType": "address",
          "name": "newOwner",
          "type": "address"
        }
      ],
      "name": "transferOwnership",
      "outputs": [],
      "stateMutability": "nonpayable",
      "type": "function"
    }
  ],
  "bytecode": "0x61016060405234801561001157600080fd5b506040516130a33803806130a383398181016040528101906100339190610782565b6040518060400160405280600a81526020017f4e65745820546f6b656e00000000000000000000000000000000000000000000815250806040518060400160405280600181526020017f3100000000000000000000000000000000000000000000000000000000000000815250836040518060400160405280600a81526020017f4e65745820546f6b656e000000000000000000000000000000000000000000008152506040518060400160405280600481526020017f4e45545800000000000000000000000000000000000000000000000000000000815250816003908161011c91906109ff565b50806004908161012c91906109ff565b505050600073ffffffffffffffffffffffffffffffffffffffff168173ffffffffffffffffffffffffffffffffffffffff16036101a15760006040517f1e4fbdf70000000000000000000000000000000000000000000000000000000081526004016101989190610ae0565b60405180910390fd5b6101b08161028f60201b60201c565b506101c560068361035560201b90919060201c565b61012081815250506101e160078261035560201b90919060201c565b6101408181525050818051906020012060e08181525050808051906020012061010081815250504660a0818152505061021e6103a560201b60201c565b608081815250503073ffffffffffffffffffffffffffffffffffffffff1660c08173ffffffffffffffffffffffffffffffffffffffff1681525050505050610277816a108b2a2c2802909400000061040060201b60201c565b6a108b2a2c2802909400000060098190555050610d69565b6000600560009054906101000a900473ffffffffffffffffffffffffffffffffffffffff16905081600560006101000a81548173ffffffffffffffffffffffffffffffffffffffff021916908373ffffffffffffffffffffffffffffffffffffffff1602179055508173ffffffffffffffffffffffffffffffffffffffff168173ffffffffffffffffffffffffffffffffffffffff167f8be0079c531659141344cd1fd0a4f28419497f9722a3daafe3b4186f6b6457e060405160405180910390a35050565b6000602083511015610377576103708361048860201b60201c565b905061039f565b82610387836104f060201b60201c565b600001908161039691906109ff565b5060ff60001b90505b92915050565b60007f8b73c3c69bb8fe3d512ecc4cf759cc79239f7b179b0ffacaa9a75d522b39400f60e0516101005146306040516020016103e5959493929190610b23565b60405160208183030381529060405280519060200120905090565b600073ffffffffffffffffffffffffffffffffffffffff168273ffffffffffffffffffffffffffffffffffffffff16036104725760006040517fec442f050000000000000000000000000000000000000000000000000000000081526004016104699190610ae0565b60405180910390fd5b610484600083836104fa60201b60201c565b5050565b600080829050601f815111156104d557826040517f305a27a90000000000000000000000000000000000000000000000000000000081526004016104cc9190610bfb565b60405180910390fd5b8051816104e190610c4d565b60001c1760001b915050919050565b6000819050919050565b600073ffffffffffffffffffffffffffffffffffffffff168373ffffffffffffffffffffffffffffffffffffffff160361054c5780600260008282546105409190610ce3565b9250508190555061061f565b60008060008573ffffffffffffffffffffffffffffffffffffffff1673ffffffffffffffffffffffffffffffffffffffff168152602001908152602001600020549050818110156105d8578381836040517fe450d38c0000000000000000000000000000000000000000000000000000000081526004016105cf93929190610d17565b60405180910390fd5b8181036000808673ffffffffffffffffffffffffffffffffffffffff1673ffffffffffffffffffffffffffffffffffffffff16815260200190815260200160002081905550505b600073ffffffffffffffffffffffffffffffffffffffff168273ffffffffffffffffffffffffffffffffffffffff160361066857806002600082825403925050819055506106b5565b806000808473ffffffffffffffffffffffffffffffffffffffff1673ffffffffffffffffffffffffffffffffffffffff168152602001908152602001600020600082825401925050819055505b8173ffffffffffffffffffffffffffffffffffffffff168373ffffffffffffffffffffffffffffffffffffffff167fddf252ad1be2c89b69c2b068fc378daa952ba7f163c4a11628f55a4df523b3ef836040516107129190610d4e565b60405180910390a3505050565b600080fd5b600073ffffffffffffffffffffffffffffffffffffffff82169050919050565b600061074f82610724565b9050919050565b61075f81610744565b811461076a57600080fd5b50565b60008151905061077c81610756565b92915050565b6000602082840312156107985761079761071f565b5b60006107a68482850161076d565b91505092915050565b600081519050919050565b7f4e487b7100000000000000000000000000000000000000000000000000000000600052604160045260246000fd5b7f4e487b7100000000000000000000000000000000000000000000000000000000600052602260045260246000fd5b6000600282049050600182168061083057607f821691505b602082108103610843576108426107e9565b5b50919050565b60008190508160005260206000209050919050565b60006020601f8301049050919050565b600082821b905092915050565b6000600883026108ab7fffffffffffffffffffffffffffffffffffffffffffffffffffffffffffffffff8261086e565b6108b5868361086e565b95508019841693508086168417925050509392505050565b6000819050919050565b6000819050919050565b60006108fc6108f76108f2846108cd565b6108d7565b6108cd565b9050919050565b6000819050919050565b610916836108e1565b61092a61092282610903565b84845461087b565b825550505050565b600090565b61093f610932565b61094a81848461090d565b505050565b5b8181101561096e57610963600082610937565b600181019050610950565b5050565b601f8211156109b35761098481610849565b61098d8461085e565b8101602085101561099c578190505b6109b06109a88561085e565b83018261094f565b50505b505050565b600082821c905092915050565b60006109d6600019846008026109b8565b1980831691505092915050565b60006109ef83836109c5565b9150826002028217905092915050565b610a08826107af565b67ffffffffffffffff811115610a2157610a206107ba565b5b610a2b8254610818565b610a36828285610972565b600060209050601f831160018114610a695760008415610a57578287015190505b610a6185826109e3565b865550610ac9565b601f198416610a7786610849565b60005b82811015610a9f57848901518255600182019150602085019450602081019050610a7a565b86831015610abc5784890151610ab8601f8916826109c5565b8355505b6001600288020188555050505b505050505050565b610ada81610744565b82525050565b6000602082019050610af56000830184610ad1565b92915050565b6000819050919050565b610b0e81610afb565b82525050565b610b1d816108cd565b82525050565b600060a082019050610b386000830188610b05565b610b456020830187610b05565b610b526040830186610b05565b610b5f6060830185610b14565b610b6c6080830184610ad1565b9695505050505050565b600082825260208201905092915050565b60005b83811015610ba5578082015181840152602081019050610b8a565b60008484015250505050565b6000601f19601f8301169050919050565b6000610bcd826107af565b610bd78185610b76565b9350610be7818560208601610b87565b610bf081610bb1565b840191505092915050565b60006020820190508181036000830152610c158184610bc2565b905092915050565b600081519050919050565b6000819050602082019050919050565b6000610c448251610afb565b80915050919050565b6000610c5882610c1d565b82610c6284610c28565b9050610c6d81610c38565b92506020821015610cad57610ca87fffffffffffffffffffffffffffffffffffffffffffffffffffffffffffffffff8360200360080261086e565b831692505b5050919050565b7f4e487b7100000000000000000000000000000000000000000000000000000000600052601160045260246000fd5b6000610cee826108cd565b9150610cf9836108cd565b9250828201905080821115610d1157610d10610cb4565b5b92915050565b6000606082019050610d2c6000830186610ad1565b610d396020830185610b14565b610d466040830184610b14565b949350505050565b6000602082019050610d636000830184610b14565b92915050565b60805160a05160c05160e0516101005161012051610140516122e0610dc360003960006110c50152600061108a015260006115830152600061156201526000610d3401526000610d8a01526000610db301526122e06000f3fe608060405234801561001057600080fd5b50600436106101425760003560e01c80637ecebe00116100b8578063a2309ff81161007c578063a2309ff814610349578063a9059cbb14610367578063ca7df92c14610397578063d505accf146103b5578063dd62ed3e146103d1578063f2fde38b1461040157610142565b80637ecebe001461029b57806384b0196e146102cb5780638da5cb5b146102ef578063902d55a51461030d57806395d89b411461032b57610142565b8063313ce5671161010a578063313ce567146101ed5780633644e5151461020b57806340c10f191461022957806342966c681461024557806370a0823114610261578063715018a61461029157610142565b806306b657af1461014757806306fdde0314610151578063095ea7b31461016f57806318160ddd1461019f57806323b872dd146101bd575b600080fd5b61014f61041d565b005b610159610485565b6040516101669190611a70565b60405180910390f35b61018960048036038101906101849190611b2b565b610517565b6040516101969190611b86565b60405180910390f35b6101a761053a565b6040516101b49190611bb0565b60405180910390f35b6101d760048036038101906101d29190611bcb565b610544565b6040516101e49190611b86565b60405180910390f35b6101f5610573565b6040516102029190611c3a565b60405180910390f35b61021361057c565b6040516102209190611c6e565b60405180910390f35b610243600480360381019061023e9190611b2b565b61058b565b005b61025f600480360381019061025a9190611c89565b610663565b005b61027b60048036038101906102769190611cb6565b6106c6565b6040516102889190611bb0565b60405180910390f35b61029961070e565b005b6102b560048036038101906102b09190611cb6565b610722565b6040516102c29190611bb0565b60405180910390f35b6102d3610734565b6040516102e69796959493929190611deb565b60405180910390f35b6102f76107de565b6040516103049190611e6f565b60405180910390f35b610315610808565b6040516103229190611bb0565b60405180910390f35b610333610817565b6040516103409190611a70565b60405180910390f35b6103516108a9565b60405161035e9190611bb0565b60405180910390f35b610381600480360381019061037c9190611b2b565b6108af565b60405161038e9190611b86565b60405180910390f35b61039f6108d2565b6040516103ac9190611bb0565b60405180910390f35b6103cf60048036038101906103ca9190611ee2565b6108e1565b005b6103eb60048036038101906103e69190611f84565b610a29565b6040516103f89190611bb0565b60405180910390f35b61041b60048036038101906104169190611cb6565b610ab0565b005b600061042833610722565b90503373ffffffffffffffffffffffffffffffffffffffff167f153b396dd86f870ca0ad430ca1ae27c6b142b10b2d86d1bc1bf9bb6ed6156d3a826040516104709190611bb0565b60405180910390a261048133610b36565b5050565b60606003805461049490611ff3565b80601f01602080910402602001604051908101604052809291908181526020018280546104c090611ff3565b801561050d5780601f106104e25761010080835404028352916020019161050d565b820191906000526020600020905b8154815290600101906020018083116104f057829003601f168201915b5050505050905090565b600080610522610b8d565b905061052f818585610b95565b600191505092915050565b6000600254905090565b60008061054f610b8d565b905061055c858285610ba7565b610567858585610c3c565b60019150509392505050565b60006012905090565b6000610586610d30565b905090565b610593610de7565b6a295be96e64066972000000816009546105ad9190612053565b11156105ee576040517f08c379a00000000000000000000000000000000000000000000000000000000081526004016105e5906120d3565b60405180910390fd5b6105f88282610e6e565b806009600082825461060a9190612053565b925050819055508173ffffffffffffffffffffffffffffffffffffffff167f0f6798a560793a54c3bcfe86a93cde1e73087d944c0ea20544137d4121396885826040516106579190611bb0565b60405180910390a25050565b61066b610de7565b6106753382610ef0565b3373ffffffffffffffffffffffffffffffffffffffff167fcc16f5dbb4873280815c1ee09dbd06736cffcc184412cf7a71a0fdb75d397ca5826040516106bb9190611bb0565b60405180910390a250565b60008060008373ffffffffffffffffffffffffffffffffffffffff1673ffffffffffffffffffffffffffffffffffffffff168152602001908152602001600020549050919050565b610716610de7565b6107206000610f72565b565b600061072d82611038565b9050919050565b600060608060008060006060610748611081565b6107506110bc565b46306000801b600067ffffffffffffffff811115610771576107706120f3565b5b60405190808252806020026020018201604052801561079f5781602001602082028036833780820191505090505b507f0f00000000000000000000000000000000000000000000000000000000000000959493929190965096509650965096509650965090919293949596565b6000600560009054906101000a900473ffffffffffffffffffffffffffffffffffffffff16905090565b6a295be96e6406697200000081565b60606004805461082690611ff3565b80601f016020809104026020016040519081016040528092919081815260200182805461085290611ff3565b801561089f5780601f106108745761010080835404028352916020019161089f565b820191906000526020600020905b81548152906001019060200180831161088257829003601f168201915b5050505050905090565b60095481565b6000806108ba610b8d565b90506108c7818585610c3c565b600191505092915050565b6a108b2a2c2802909400000081565b8342111561092657836040517f6279130200000000000000000000000000000000000000000000000000000000815260040161091d9190611bb0565b60405180910390fd5b60007f6e71edae12b1b97f4d1f60370fef10105fa2faae0126114a169c64845d6126c98888886109558c610b36565b8960405160200161096b96959493929190612122565b604051602081830303815290604052805190602001209050600061098e826110f7565b9050600061099e82878787611111565b90508973ffffffffffffffffffffffffffffffffffffffff168173ffffffffffffffffffffffffffffffffffffffff1614610a1257808a6040517f4b800e46000000000000000000000000000000000000000000000000000000008152600401610a09929190612183565b60405180910390fd5b610a1d8a8a8a610b95565b50505050505050505050565b6000600160008473ffffffffffffffffffffffffffffffffffffffff1673ffffffffffffffffffffffffffffffffffffffff16815260200190815260200160002060008373ffffffffffffffffffffffffffffffffffffffff1673ffffffffffffffffffffffffffffffffffffffff16815260200190815260200160002054905092915050565b610ab8610de7565b600073ffffffffffffffffffffffffffffffffffffffff168173ffffffffffffffffffffffffffffffffffffffff1603610b2a5760006040517f1e4fbdf7000000000000000000000000000000000000000000000000000000008152600401610b219190611e6f565b60405180910390fd5b610b3381610f72565b50565b6000600860008373ffffffffffffffffffffffffffffffffffffffff1673ffffffffffffffffffffffffffffffffffffffff1681526020019081526020016000206000815480929190600101919050559050919050565b600033905090565b610ba28383836001611141565b505050565b6000610bb38484610a29565b90507fffffffffffffffffffffffffffffffffffffffffffffffffffffffffffffffff811015610c365781811015610c26578281836040517ffb8f41b2000000000000000000000000000000000000000000000000000000008152600401610c1d939291906121ac565b60405180910390fd5b610c3584848484036000611141565b5b50505050565b600073ffffffffffffffffffffffffffffffffffffffff168373ffffffffffffffffffffffffffffffffffffffff1603610cae5760006040517f96c6fd1e000000000000000000000000000000000000000000000000000000008152600401610ca59190611e6f565b60405180910390fd5b600073ffffffffffffffffffffffffffffffffffffffff168273ffffffffffffffffffffffffffffffffffffffff1603610d205760006040517fec442f05000000000000000000000000000000000000000000000000000000008152600401610d179190611e6f565b60405180910390fd5b610d2b838383611318565b505050565b60007f000000000000000000000000000000000000000000000000000000000000000073ffffffffffffffffffffffffffffffffffffffff163073ffffffffffffffffffffffffffffffffffffffff16148015610dac57507f000000000000000000000000000000000000000000000000000000000000000046145b15610dd9577f00000000000000000000000000000000000000000000000000000000000000009050610de4565b610de161153d565b90505b90565b610def610b8d565b73ffffffffffffffffffffffffffffffffffffffff16610e0d6107de565b73ffffffffffffffffffffffffffffffffffffffff1614610e6c57610e30610b8d565b6040517f118cdaa7000000000000000000000000000000000000000000000000000000008152600401610e639190611e6f565b60405180910390fd5b565b600073ffffffffffffffffffffffffffffffffffffffff168273ffffffffffffffffffffffffffffffffffffffff1603610ee05760006040517fec442f05000000000000000000000000000000000000000000000000000000008152600401610ed79190611e6f565b60405180910390fd5b610eec60008383611318565b5050565b600073ffffffffffffffffffffffffffffffffffffffff168273ffffffffffffffffffffffffffffffffffffffff1603610f625760006040517f96c6fd1e000000000000000000000000000000000000000000000000000000008152600401610f599190611e6f565b60405180910390fd5b610f6e82600083611318565b5050565b6000600560009054906101000a900473ffffffffffffffffffffffffffffffffffffffff16905081600560006101000a81548173ffffffffffffffffffffffffffffffffffffffff021916908373ffffffffffffffffffffffffffffffffffffffff1602179055508173ffffffffffffffffffffffffffffffffffffffff168173ffffffffffffffffffffffffffffffffffffffff167f8be0079c531659141344cd1fd0a4f28419497f9722a3daafe3b4186f6b6457e060405160405180910390a35050565b6000600860008373ffffffffffffffffffffffffffffffffffffffff1673ffffffffffffffffffffffffffffffffffffffff168152602001908152602001600020549050919050565b60606110b760067f00000000000000000000000000000000000000000000000000000000000000006115d390919063ffffffff16565b905090565b60606110f260077f00000000000000000000000000000000000000000000000000000000000000006115d390919063ffffffff16565b905090565b600061110a611104610d30565b83611683565b9050919050565b600080600080611123888888886116c4565b92509250925061113382826117b8565b829350505050949350505050565b600073ffffffffffffffffffffffffffffffffffffffff168473ffffffffffffffffffffffffffffffffffffffff16036111b35760006040517fe602df050000000000000000000000000000000000000000000000000000000081526004016111aa9190611e6f565b60405180910390fd5b600073ffffffffffffffffffffffffffffffffffffffff168373ffffffffffffffffffffffffffffffffffffffff16036112255760006040517f94280d6200000000000000000000000000000000000000000000000000000000815260040161121c9190611e6f565b60405180910390fd5b81600160008673ffffffffffffffffffffffffffffffffffffffff1673ffffffffffffffffffffffffffffffffffffffff16815260200190815260200160002060008573ffffffffffffffffffffffffffffffffffffffff1673ffffffffffffffffffffffffffffffffffffffff168152602001908152602001600020819055508015611312578273ffffffffffffffffffffffffffffffffffffffff168473ffffffffffffffffffffffffffffffffffffffff167f8c5be1e5ebec7d5bd14f71427d1e84f3dd0314c0f7b2291e5b200ac8c7c3b925846040516113099190611bb0565b60405180910390a35b50505050565b600073ffffffffffffffffffffffffffffffffffffffff168373ffffffffffffffffffffffffffffffffffffffff160361136a57806002600082825461135e9190612053565b9250508190555061143d565b60008060008573ffffffffffffffffffffffffffffffffffffffff1673ffffffffffffffffffffffffffffffffffffffff168152602001908152602001600020549050818110156113f6578381836040517fe450d38c0000000000000000000000000000000000000000000000000000000081526004016113ed939291906121ac565b60405180910390fd5b8181036000808673ffffffffffffffffffffffffffffffffffffffff1673ffffffffffffffffffffffffffffffffffffffff16815260200190815260200160002081905550505b600073ffffffffffffffffffffffffffffffffffffffff168273ffffffffffffffffffffffffffffffffffffffff160361148657806002600082825403925050819055506114d3565b806000808473ffffffffffffffffffffffffffffffffffffffff1673ffffffffffffffffffffffffffffffffffffffff168152602001908152602001600020600082825401925050819055505b8173ffffffffffffffffffffffffffffffffffffffff168373ffffffffffffffffffffffffffffffffffffffff167fddf252ad1be2c89b69c2b068fc378daa952ba7f163c4a11628f55a4df523b3ef836040516115309190611bb0565b60405180910390a3505050565b60007f8b73c3c69bb8fe3d512ecc4cf759cc79239f7b179b0ffacaa9a75d522b39400f7f00000000000000000000000000000000000000000000000000000000000000007f000000000000000000000000000000000000000000000000000000000000000046306040516020016115b89594939291906121e3565b60405160208183030381529060405280519060200120905090565b606060ff60001b83146115f0576115e98361191c565b905061167d565b8180546115fc90611ff3565b80601f016020809104026020016040519081016040528092919081815260200182805461162890611ff3565b80156116755780601f1061164a57610100808354040283529160200191611675565b820191906000526020600020905b81548152906001019060200180831161165857829003601f168201915b505050505090505b92915050565b60006040517f190100000000000000000000000000000000000000000000000000000000000081528360028201528260228201526042812091505092915050565b60008060007f7fffffffffffffffffffffffffffffff5d576e7357a4501ddfe92f46681b20a08460001c11156117045760006003859250925092506117ae565b6000600188888888604051600081526020016040526040516117299493929190612236565b6020604051602081039080840390855afa15801561174b573d6000803e3d6000fd5b505050602060405103519050600073ffffffffffffffffffffffffffffffffffffffff168173ffffffffffffffffffffffffffffffffffffffff160361179f57600060016000801b935093509350506117ae565b8060008060001b935093509350505b9450945094915050565b600060038111156117cc576117cb61227b565b5b8260038111156117df576117de61227b565b5b031561191857600160038111156117f9576117f861227b565b5b82600381111561180c5761180b61227b565b5b03611843576040517ff645eedf00000000000000000000000000000000000000000000000000000000815260040160405180910390fd5b600260038111156118575761185661227b565b5b82600381111561186a5761186961227b565b5b036118af578060001c6040517ffce698f70000000000000000000000000000000000000000000000000000000081526004016118a69190611bb0565b60405180910390fd5b6003808111156118c2576118c161227b565b5b8260038111156118d5576118d461227b565b5b0361191757806040517fd78bce0c00000000000000000000000000000000000000000000000000000000815260040161190e9190611c6e565b60405180910390fd5b5b5050565b6060600061192983611990565b90506000602067ffffffffffffffff811115611948576119476120f3565b5b6040519080825280601f01601f19166020018201604052801561197a5781602001600182028036833780820191505090505b5090508181528360208201528092505050919050565b60008060ff8360001c169050601f8111156119d7576040517fb3512b0c00000000000000000000000000000000000000000000000000000000815260040160405180910390fd5b80915050919050565b600081519050919050565b600082825260208201905092915050565b60005b83811015611a1a5780820151818401526020810190506119ff565b60008484015250505050565b6000601f19601f8301169050919050565b6000611a42826119e0565b611a4c81856119eb565b9350611a5c8185602086016119fc565b611a6581611a26565b840191505092915050565b60006020820190508181036000830152611a8a8184611a37565b905092915050565b600080fd5b600073ffffffffffffffffffffffffffffffffffffffff82169050919050565b6000611ac282611a97565b9050919050565b611ad281611ab7565b8114611add57600080fd5b50565b600081359050611aef81611ac9565b92915050565b6000819050919050565b611b0881611af5565b8114611b1357600080fd5b50565b600081359050611b2581611aff565b92915050565b60008060408385031215611b4257611b41611a92565b5b6000611b5085828601611ae0565b9250506020611b6185828601611b16565b9150509250929050565b60008115159050919050565b611b8081611b6b565b82525050565b6000602082019050611b9b6000830184611b77565b92915050565b611baa81611af5565b82525050565b6000602082019050611bc56000830184611ba1565b92915050565b600080600060608486031215611be457611be3611a92565b5b6000611bf286828701611ae0565b9350506020611c0386828701611ae0565b9250506040611c1486828701611b16565b9150509250925092565b600060ff82169050919050565b611c3481611c1e565b82525050565b6000602082019050611c4f6000830184611c2b565b92915050565b6000819050919050565b611c6881611c55565b82525050565b6000602082019050611c836000830184611c5f565b92915050565b600060208284031215611c9f57611c9e611a92565b5b6000611cad84828501611b16565b91505092915050565b600060208284031215611ccc57611ccb611a92565b5b6000611cda84828501611ae0565b91505092915050565b60007fff0000000000000000000000000000000000000000000000000000000000000082169050919050565b611d1881611ce3565b82525050565b611d2781611ab7565b82525050565b600081519050919050565b600082825260208201905092915050565b6000819050602082019050919050565b611d6281611af5565b82525050565b6000611d748383611d59565b60208301905092915050565b6000602082019050919050565b6000611d9882611d2d565b611da28185611d38565b9350611dad83611d49565b8060005b83811015611dde578151611dc58882611d68565b9750611dd083611d80565b925050600181019050611db1565b5085935050505092915050565b600060e082019050611e00600083018a611d0f565b8181036020830152611e128189611a37565b90508181036040830152611e268188611a37565b9050611e356060830187611ba1565b611e426080830186611d1e565b611e4f60a0830185611c5f565b81810360c0830152611e618184611d8d565b905098975050505050505050565b6000602082019050611e846000830184611d1e565b92915050565b611e9381611c1e565b8114611e9e57600080fd5b50565b600081359050611eb081611e8a565b92915050565b611ebf81611c55565b8114611eca57600080fd5b50565b600081359050611edc81611eb6565b92915050565b600080600080600080600060e0888a031215611f0157611f00611a92565b5b6000611f0f8a828b01611ae0565b9750506020611f208a828b01611ae0565b9650506040611f318a828b01611b16565b9550506060611f428a828b01611b16565b9450506080611f538a828b01611ea1565b93505060a0611f648a828b01611ecd565b92505060c0611f758a828b01611ecd565b91505092959891949750929550565b60008060408385031215611f9b57611f9a611a92565b5b6000611fa985828601611ae0565b9250506020611fba85828601611ae0565b9150509250929050565b7f4e487b7100000000000000000000000000000000000000000000000000000000600052602260045260246000fd5b6000600282049050600182168061200b57607f821691505b60208210810361201e5761201d611fc4565b5b50919050565b7f4e487b7100000000000000000000000000000000000000000000000000000000600052601160045260246000fd5b600061205e82611af5565b915061206983611af5565b925082820190508082111561208157612080612024565b5b92915050565b7f4578636565647320746f74616c206d696e7461626c6520737570706c79000000600082015250565b60006120bd601d836119eb565b91506120c882612087565b602082019050919050565b600060208201905081810360008301526120ec816120b0565b9050919050565b7f4e487b7100000000000000000000000000000000000000000000000000000000600052604160045260246000fd5b600060c0820190506121376000830189611c5f565b6121446020830188611d1e565b6121516040830187611d1e565b61215e6060830186611ba1565b61216b6080830185611ba1565b61217860a0830184611ba1565b979650505050505050565b60006040820190506121986000830185611d1e565b6121a56020830184611d1e565b9392505050565b60006060820190506121c16000830186611d1e565b6121ce6020830185611ba1565b6121db6040830184611ba1565b949350505050565b600060a0820190506121f86000830188611c5f565b6122056020830187611c5f565b6122126040830186611c5f565b61221f6060830185611ba1565b61222c6080830184611d1e565b9695505050505050565b600060808201905061224b6000830187611c5f565b6122586020830186611c2b565b6122656040830185611c5f565b6122726060830184611c5f565b95945050505050565b7f4e487b7100000000000000000000000000000000000000000000000000000000600052602160045260246000fdfea26469706673582212202cff6e93fd5c905f6d590d5d136bb85dff18cdfaf0e2b4e1b8df412186a5eb6464736f6c634300081c0033",
  "linkReferences": {},
  "deployedLinkReferences": {}
}