{
  "_format": "hh-sol-artifact-1",
  "contractName": "NetXSwap",
  "sourceName": "contracts/NetXSwap.sol",
  "abi": [
    {
      "inputs": [
        {
          "internalType": "address",
          "name": "_initialOwner",
          "type": "address"
        },
        {
          "internalType": "address",
          "name": "_netXToken",
          "type": "address"
        }
      ],
      "stateMutability": "nonpayable",
      "type": "constructor"
    },
    {
      "inputs": [
        {
          "internalType": "address",
          "name": "owner",
          "type": "address"
        }
      ],
      "name": "OwnableInvalidOwner",
      "type": "error"
    },
    {
      "inputs": [
        {
          "internalType": "address",
          "name": "account",
          "type": "address"
        }
      ],
      "name": "OwnableUnauthorizedAccount",
      "type": "error"
    },
    {
      "inputs": [],
      "name": "ReentrancyGuardReentrantCall",
      "type": "error"
    },
    {
      "anonymous": false,
      "inputs": [
        {
          "indexed": true,
          "internalType": "address",
          "name": "previousOwner",
          "type": "address"
        },
        {
          "indexed": true,
          "internalType": "address",
          "name": "newOwner",
          "type": "address"
        }
      ],
      "name": "OwnershipTransferred",
      "type": "event"
    },
    {
      "anonymous": false,
      "inputs": [
        {
          "indexed": true,
          "internalType": "address",
          "name": "user",
          "type": "address"
        },
        {
          "indexed": true,
          "internalType": "address",
          "name": "tokenIn",
          "type": "address"
        },
        {
          "indexed": false,
          "internalType": "uint256",
          "name": "amountOut",
          "type": "uint256"
        }
      ],
      "name": "SwapExecuted",
      "type": "event"
    },
    {
      "inputs": [
        {
          "internalType": "address",
          "name": "_token",
          "type": "address"
        },
        {
          "internalType": "address",
          "name": "_receiver",
          "type": "address"
        }
      ],
      "name": "claimTokens",
      "outputs": [],
      "stateMutability": "nonpayable",
      "type": "function"
    },
    {
      "inputs": [],
      "name": "netXToken",
      "outputs": [
        {
          "internalType": "address",
          "name": "",
          "type": "address"
        }
      ],
      "stateMutability": "view",
      "type": "function"
    },
    {
      "inputs": [],
      "name": "openSwap",
      "outputs": [
        {
          "internalType": "bool",
          "name": "",
          "type": "bool"
        }
      ],
      "stateMutability": "view",
      "type": "function"
    },
    {
      "inputs": [],
      "name": "owner",
      "outputs": [
        {
          "internalType": "address",
          "name": "",
          "type": "address"
        }
      ],
      "stateMutability": "view",
      "type": "function"
    },
    {
      "inputs": [],
      "name": "renounceOwnership",
      "outputs": [],
      "stateMutability": "nonpayable",
      "type": "function"
    },
    {
      "inputs": [
        {
          "internalType": "bool",
          "name": "_status",
          "type": "bool"
        }
      ],
      "name": "setSwapStatus",
      "outputs": [],
      "stateMutability": "nonpayable",
      "type": "function"
    },
    {
      "inputs": [
        {
          "internalType": "address",
          "name": "_triasNewToken",
          "type": "address"
        },
        {
          "internalType": "address",
          "name": "_triasOldToken",
          "type": "address"
        },
        {
          "internalType": "address",
          "name": "_tHECOToken",
          "type": "address"
        },
        {
          "internalType": "address",
          "name": "_tToken",
          "type": "address"
        }
      ],
      "name": "setTokens",
      "outputs": [],
      "stateMutability": "nonpayable",
      "type": "function"
    },
    {
      "inputs": [
        {
          "internalType": "address",
          "name": "_netXToken",
          "type": "address"
        }
      ],
      "name": "setnetXToken",
      "outputs": [],
      "stateMutability": "nonpayable",
      "type": "function"
    },
    {
      "inputs": [
        {
          "internalType": "enum NetXSwap.TokenType",
          "name": "tokenType",
          "type": "uint8"
        }
      ],
      "name": "swapToNetX",
      "outputs": [],
      "stateMutability": "nonpayable",
      "type": "function"
    },
    {
      "inputs": [],
      "name": "tHECOToken",
      "outputs": [
        {
          "internalType": "address",
          "name": "",
          "type": "address"
        }
      ],
      "stateMutability": "view",
      "type": "function"
    },
    {
      "inputs": [],
      "name": "tToken",
      "outputs": [
        {
          "internalType": "address",
          "name": "",
          "type": "address"
        }
      ],
      "stateMutability": "view",
      "type": "function"
    },
    {
      "inputs": [
        {
          "internalType": "address",
          "name": "newOwner",
          "type": "address"
        }
      ],
      "name": "transferOwnership",
      "outputs": [],
      "stateMutability": "nonpayable",
      "type": "function"
    },
    {
      "inputs": [],
      "name": "triasNewToken",
      "outputs": [
        {
          "internalType": "address",
          "name": "",
          "type": "address"
        }
      ],
      "stateMutability": "view",
      "type": "function"
    },
    {
      "inputs": [],
      "name": "triasOldToken",
      "outputs": [
        {
          "internalType": "address",
          "name": "",
          "type": "address"
        }
      ],
      "stateMutability": "view",
      "type": "function"
    }
  ],
  "bytecode": "0x608060405234801561001057600080fd5b506040516119f83803806119f883398181016040528101906100329190610246565b81600073ffffffffffffffffffffffffffffffffffffffff168173ffffffffffffffffffffffffffffffffffffffff16036100a55760006040517f1e4fbdf700000000000000000000000000000000000000000000000000000000815260040161009c9190610295565b60405180910390fd5b6100b48161011f60201b60201c565b506001808190555080600260006101000a81548173ffffffffffffffffffffffffffffffffffffffff021916908373ffffffffffffffffffffffffffffffffffffffff1602179055506001600660146101000a81548160ff02191690831515021790555050506102b0565b60008060009054906101000a900473ffffffffffffffffffffffffffffffffffffffff169050816000806101000a81548173ffffffffffffffffffffffffffffffffffffffff021916908373ffffffffffffffffffffffffffffffffffffffff1602179055508173ffffffffffffffffffffffffffffffffffffffff168173ffffffffffffffffffffffffffffffffffffffff167f8be0079c531659141344cd1fd0a4f28419497f9722a3daafe3b4186f6b6457e060405160405180910390a35050565b600080fd5b600073ffffffffffffffffffffffffffffffffffffffff82169050919050565b6000610213826101e8565b9050919050565b61022381610208565b811461022e57600080fd5b50565b6000815190506102408161021a565b92915050565b6000806040838503121561025d5761025c6101e3565b5b600061026b85828601610231565b925050602061027c85828601610231565b9150509250929050565b61028f81610208565b82525050565b60006020820190506102aa6000830184610286565b92915050565b611739806102bf6000396000f3fe608060405234801561001057600080fd5b50600436106100ea5760003560e01c806389215bc01161008c578063a5ce3d9011610066578063a5ce3d90146101fd578063c35d64ea1461021b578063d04b620814610239578063f2fde38b14610257576100ea565b806389215bc0146101a55780638da5cb5b146101c1578063956d3573146101df576100ea565b806369ffa08a116100c857806369ffa08a14610145578063715018a61461016157806378d7f4b21461016b578063871c867414610187576100ea565b806335ed71a8146100ef578063537820bf1461010b5780635d14aa4214610127575b600080fd5b61010960048036038101906101049190610fbc565b610273565b005b61012560048036038101906101209190611047565b610298565b005b61012f6103aa565b60405161013c91906110bd565b60405180910390f35b61015f600480360381019061015a91906110d8565b6103bd565b005b61016961050a565b005b61018560048036038101906101809190611118565b61051e565b005b61018f6105d9565b60405161019c9190611154565b60405180910390f35b6101bf60048036038101906101ba9190611194565b6105ff565b005b6101c9610c96565b6040516101d69190611154565b60405180910390f35b6101e7610cbf565b6040516101f49190611154565b60405180910390f35b610205610ce5565b6040516102129190611154565b60405180910390f35b610223610d0b565b6040516102309190611154565b60405180910390f35b610241610d31565b60405161024e9190611154565b60405180910390f35b610271600480360381019061026c9190611118565b610d57565b005b61027b610ddd565b80600660146101000a81548160ff02191690831515021790555050565b6102a0610ddd565b83600360006101000a81548173ffffffffffffffffffffffffffffffffffffffff021916908373ffffffffffffffffffffffffffffffffffffffff16021790555082600460006101000a81548173ffffffffffffffffffffffffffffffffffffffff021916908373ffffffffffffffffffffffffffffffffffffffff16021790555081600560006101000a81548173ffffffffffffffffffffffffffffffffffffffff021916908373ffffffffffffffffffffffffffffffffffffffff16021790555080600660006101000a81548173ffffffffffffffffffffffffffffffffffffffff021916908373ffffffffffffffffffffffffffffffffffffffff16021790555050505050565b600660149054906101000a900460ff1681565b6103c5610ddd565b60008273ffffffffffffffffffffffffffffffffffffffff166370a08231306040518263ffffffff1660e01b81526004016104009190611154565b602060405180830381865afa15801561041d573d6000803e3d6000fd5b505050506040513d601f19601f8201168201806040525081019061044191906111f7565b905060008111610486576040517f08c379a000000000000000000000000000000000000000000000000000000000815260040161047d90611281565b60405180910390fd5b8273ffffffffffffffffffffffffffffffffffffffff1663a9059cbb83836040518363ffffffff1660e01b81526004016104c19291906112b0565b6020604051808303816000875af11580156104e0573d6000803e3d6000fd5b505050506040513d601f19601f8201168201806040525081019061050491906112ee565b50505050565b610512610ddd565b61051c6000610e64565b565b610526610ddd565b600073ffffffffffffffffffffffffffffffffffffffff168173ffffffffffffffffffffffffffffffffffffffff1603610595576040517f08c379a000000000000000000000000000000000000000000000000000000000815260040161058c90611367565b60405180910390fd5b80600260006101000a81548173ffffffffffffffffffffffffffffffffffffffff021916908373ffffffffffffffffffffffffffffffffffffffff16021790555050565b600460009054906101000a900473ffffffffffffffffffffffffffffffffffffffff1681565b600660149054906101000a900460ff1661064e576040517f08c379a0000000000000000000000000000000000000000000000000000000008152600401610645906113d3565b60405180910390fd5b610656610f28565b600060606000600381111561066e5761066d6113f3565b5b836003811115610681576106806113f3565b5b036106e857600360009054906101000a900473ffffffffffffffffffffffffffffffffffffffff1691506040518060400160405280600f81526020017f5472696173204e657720546f6b656e000000000000000000000000000000000081525090506108cf565b600160038111156106fc576106fb6113f3565b5b83600381111561070f5761070e6113f3565b5b0361077657600460009054906101000a900473ffffffffffffffffffffffffffffffffffffffff1691506040518060400160405280600f81526020017f5472696173204f6c6420546f6b656e000000000000000000000000000000000081525090506108ce565b6002600381111561078a576107896113f3565b5b83600381111561079d5761079c6113f3565b5b0361080457600560009054906101000a900473ffffffffffffffffffffffffffffffffffffffff1691506040518060400160405280600b81526020017f744845434f20546f6b656e00000000000000000000000000000000000000000081525090506108cd565b600380811115610817576108166113f3565b5b83600381111561082a576108296113f3565b5b0361089157600660009054906101000a900473ffffffffffffffffffffffffffffffffffffffff1691506040518060400160405280600681526020017f74546f6b656e000000000000000000000000000000000000000000000000000081525090506108cc565b6040517f08c379a00000000000000000000000000000000000000000000000000000000081526004016108c39061146e565b60405180910390fd5b5b5b5b600073ffffffffffffffffffffffffffffffffffffffff168273ffffffffffffffffffffffffffffffffffffffff16141581604051602001610911919061154b565b60405160208183030381529060405290610961576040517f08c379a000000000000000000000000000000000000000000000000000000000815260040161095891906115b7565b60405180910390fd5b5060008273ffffffffffffffffffffffffffffffffffffffff166370a08231336040518263ffffffff1660e01b815260040161099d9190611154565b602060405180830381865afa1580156109ba573d6000803e3d6000fd5b505050506040513d601f19601f820116820180604052508101906109de91906111f7565b905060008111610a23576040517f08c379a0000000000000000000000000000000000000000000000000000000008152600401610a1a90611625565b60405180910390fd5b80600260009054906101000a900473ffffffffffffffffffffffffffffffffffffffff1673ffffffffffffffffffffffffffffffffffffffff166370a08231306040518263ffffffff1660e01b8152600401610a7f9190611154565b602060405180830381865afa158015610a9c573d6000803e3d6000fd5b505050506040513d601f19601f82011682018060405250810190610ac091906111f7565b1015610b01576040517f08c379a0000000000000000000000000000000000000000000000000000000008152600401610af890611691565b60405180910390fd5b8273ffffffffffffffffffffffffffffffffffffffff166323b872dd3330846040518463ffffffff1660e01b8152600401610b3e939291906116b1565b6020604051808303816000875af1158015610b5d573d6000803e3d6000fd5b505050506040513d601f19601f82011682018060405250810190610b8191906112ee565b50600260009054906101000a900473ffffffffffffffffffffffffffffffffffffffff1673ffffffffffffffffffffffffffffffffffffffff1663a9059cbb33836040518363ffffffff1660e01b8152600401610bdf9291906112b0565b6020604051808303816000875af1158015610bfe573d6000803e3d6000fd5b505050506040513d601f19601f82011682018060405250810190610c2291906112ee565b508273ffffffffffffffffffffffffffffffffffffffff163373ffffffffffffffffffffffffffffffffffffffff167fbad29f2bbbf6bb1e15563203bcdb0dd660c54eab078763eb66f797efa8f5e8c183604051610c8091906116e8565b60405180910390a3505050610c93610f6e565b50565b60008060009054906101000a900473ffffffffffffffffffffffffffffffffffffffff16905090565b600360009054906101000a900473ffffffffffffffffffffffffffffffffffffffff1681565b600260009054906101000a900473ffffffffffffffffffffffffffffffffffffffff1681565b600660009054906101000a900473ffffffffffffffffffffffffffffffffffffffff1681565b600560009054906101000a900473ffffffffffffffffffffffffffffffffffffffff1681565b610d5f610ddd565b600073ffffffffffffffffffffffffffffffffffffffff168173ffffffffffffffffffffffffffffffffffffffff1603610dd15760006040517f1e4fbdf7000000000000000000000000000000000000000000000000000000008152600401610dc89190611154565b60405180910390fd5b610dda81610e64565b50565b610de5610f77565b73ffffffffffffffffffffffffffffffffffffffff16610e03610c96565b73ffffffffffffffffffffffffffffffffffffffff1614610e6257610e26610f77565b6040517f118cdaa7000000000000000000000000000000000000000000000000000000008152600401610e599190611154565b60405180910390fd5b565b60008060009054906101000a900473ffffffffffffffffffffffffffffffffffffffff169050816000806101000a81548173ffffffffffffffffffffffffffffffffffffffff021916908373ffffffffffffffffffffffffffffffffffffffff1602179055508173ffffffffffffffffffffffffffffffffffffffff168173ffffffffffffffffffffffffffffffffffffffff167f8be0079c531659141344cd1fd0a4f28419497f9722a3daafe3b4186f6b6457e060405160405180910390a35050565b600260015403610f64576040517f3ee5aeb500000000000000000000000000000000000000000000000000000000815260040160405180910390fd5b6002600181905550565b60018081905550565b600033905090565b600080fd5b60008115159050919050565b610f9981610f84565b8114610fa457600080fd5b50565b600081359050610fb681610f90565b92915050565b600060208284031215610fd257610fd1610f7f565b5b6000610fe084828501610fa7565b91505092915050565b600073ffffffffffffffffffffffffffffffffffffffff82169050919050565b600061101482610fe9565b9050919050565b61102481611009565b811461102f57600080fd5b50565b6000813590506110418161101b565b92915050565b6000806000806080858703121561106157611060610f7f565b5b600061106f87828801611032565b945050602061108087828801611032565b935050604061109187828801611032565b92505060606110a287828801611032565b91505092959194509250565b6110b781610f84565b82525050565b60006020820190506110d260008301846110ae565b92915050565b600080604083850312156110ef576110ee610f7f565b5b60006110fd85828601611032565b925050602061110e85828601611032565b9150509250929050565b60006020828403121561112e5761112d610f7f565b5b600061113c84828501611032565b91505092915050565b61114e81611009565b82525050565b60006020820190506111696000830184611145565b92915050565b6004811061117c57600080fd5b50565b60008135905061118e8161116f565b92915050565b6000602082840312156111aa576111a9610f7f565b5b60006111b88482850161117f565b91505092915050565b6000819050919050565b6111d4816111c1565b81146111df57600080fd5b50565b6000815190506111f1816111cb565b92915050565b60006020828403121561120d5761120c610f7f565b5b600061121b848285016111e2565b91505092915050565b600082825260208201905092915050565b7f4e6f20746f6b656e7320746f20636c61696d0000000000000000000000000000600082015250565b600061126b601283611224565b915061127682611235565b602082019050919050565b6000602082019050818103600083015261129a8161125e565b9050919050565b6112aa816111c1565b82525050565b60006040820190506112c56000830185611145565b6112d260208301846112a1565b9392505050565b6000815190506112e881610f90565b92915050565b60006020828403121561130457611303610f7f565b5b6000611312848285016112d9565b91505092915050565b7f496e76616c6964204e65745820746f6b656e2061646472657373000000000000600082015250565b6000611351601a83611224565b915061135c8261131b565b602082019050919050565b6000602082019050818103600083015261138081611344565b9050919050565b7f53776170206973206e6f74206f70656e00000000000000000000000000000000600082015250565b60006113bd601083611224565b91506113c882611387565b602082019050919050565b600060208201905081810360008301526113ec816113b0565b9050919050565b7f4e487b7100000000000000000000000000000000000000000000000000000000600052602160045260246000fd5b7f496e76616c696420746f6b656e20747970650000000000000000000000000000600082015250565b6000611458601283611224565b915061146382611422565b602082019050919050565b600060208201905081810360008301526114878161144b565b9050919050565b600081519050919050565b600081905092915050565b60005b838110156114c25780820151818401526020810190506114a7565b60008484015250505050565b60006114d98261148e565b6114e38185611499565b93506114f38185602086016114a4565b80840191505092915050565b7f6e6f742073657400000000000000000000000000000000000000000000000000600082015250565b6000611535600783611499565b9150611540826114ff565b600782019050919050565b600061155782846114ce565b915061156282611528565b915081905092915050565b6000601f19601f8301169050919050565b60006115898261148e565b6115938185611224565b93506115a38185602086016114a4565b6115ac8161156d565b840191505092915050565b600060208201905081810360008301526115d1818461157e565b905092915050565b7f496e73756666696369656e7420746f6b656e2062616c616e6365000000000000600082015250565b600061160f601a83611224565b915061161a826115d9565b602082019050919050565b6000602082019050818103600083015261163e81611602565b9050919050565b7f496e73756666696369656e74204e6574582062616c616e636500000000000000600082015250565b600061167b601983611224565b915061168682611645565b602082019050919050565b600060208201905081810360008301526116aa8161166e565b9050919050565b60006060820190506116c66000830186611145565b6116d36020830185611145565b6116e060408301846112a1565b949350505050565b60006020820190506116fd60008301846112a1565b9291505056fea26469706673582212203b53dd325dcfb3f73896dfda6bad005c4bc6ece4c27db4a0766975fbe7a6d67264736f6c634300081c0033",
  "linkReferences": {},
  "deployedLinkReferences": {}
}